:020000040800F2
:1000000000280020B50100080502000805020008CC
:1000100005020008050200080502000800000000B3
:1000200000000000000000000000000005020008C1
:100030000502000800000000050200080502000893
:100040000502000805020008050200080502000874
:100050000502000805020008050200080502000864
:100060000502000805020008050200080502000854
:100070000502000805020008050200080502000844
:100080000502000805020008050200080502000834
:100090000502000805020008050200080502000824
:1000A0000502000805020008050200080502000814
:1000B0000502000805020008050200080502000804
:1000C00005020008050200080502000805020008F4
:1000D00005020008050200080502000805020008E4
:1000E00005020008050200080000000005020008E3
:1000F00005020008050200080502000805020008C4
:1001000005020008050200080502000805020008B3
:1001100005020008050200080502000805020008A3
:100120000502000805020008050200080502000893
:1001300010B5054C237833B9044B13B10448AFF321
:1001400000800123237010BD040000200000000087
:100150005002000808B5034B1BB103490348AFF335
:10016000008008BD000000000800002050020008C8
:1001700080B400AF0C4B1B680B4A43F004031360C0
:100180000A4B1B68094A23F470031360074B1B6872
:10019000064A43F400131360054B1A6813886FF383
:1001A0004D331380F8E700BF1810024004080140E7
:1001B000000000200D488546AFF300800C480D4933
:1001C0000D4A002302E0D458C4500433C4188C42B2
:1001D000F9D30A4A0A4C002301E013600432A24218
:1001E000FBD300F011F8FFF7C3FFFEE70028002063
:1001F000000000200400002070020008040000201D
:1002000020000020FEE7000070B500250C4E0D4CCC
:10021000A41BA410A54209D100F01AF800250A4E2B
:100220000A4CA41BA410A54205D170BD56F8253078
:1002300098470135EEE756F8253098470135F2E743
:100240006802000868020008680200086C020008E2
:10025000F8B500BFF8BC08BC9E467047F8B500BFB3
:08026000F8BC08BC9E46704783
:040268005501000834
:04026C003101000854
:040270000C08014035
:04000005080001B539
:00000001FF
